:100000000C94451D0C94B01D0C94B01D0C94B01DA7
:100010000C94B01D0C94B01D0C94B01D0C94B01D2C
:100020000C94B01D0C94B01D0C94B01D0C94B01D1C
:100030000C94B01D0C9451200C9490200C94351EFF
:100040000C94B01D0C94B01D0C94B01D0C94B01DFC
:100050000C94B01D0C94B01D0C94B01D0C94B01DEC
:100060000C94B01D0C94B01D0C94B01D0C94B01DDC
:100070005A5501200101003808000000000000006E
:100080000000000000000000000000000000000070
:10009000810045005DFF5E1027FF2AD22B7D210CD9
:1000A00022FB850084008903888D81096F02444208
:1000B00047004501B083B300B10124B925578A1D1B
:1000C0008B03DA22DD22E522E922F022F822FD224A
:1000D00002230523152318231B23562359235C23AE
:1000E00000408891D2E4ADB5B6BEBFFF1809020347
:1000F00004050607000002030000060700000000D8
:1001000002030405060708090A0B0C0D0000080984
:1001100000000C0D0000000008090A0B0C0D000087
:1001200002030000000004050000020300000000BC
:1001300000000203000000000809000000000A0B94
:10014000000008090000000000000809000000008D
:10015000060700000000040500000405060704056A
:1001600000000607000000000C0D000000000A0B54
:1001700000000A0B0C0D0A0B00000C0D0000000023
:10018000000000000000000000000000000000006F
:100190000000000000000000000000000E0F101121
:1001A00012131213140015160000000000000000C6
:1001B000000000001718191A1B1C1B1C1D1E1F20F5
:1001C000000000000000000000000000000000002F
:1001D000000000000000000000000000000000001F
:1001E000000000000000000000000000000000000F
:1001F00000000000000000000000000000000000FF
:10020000000000000000000000007000000000007E
:1002100000002070000000707070202070000070DE
:10022000202020202070001010102020100000003E
:10023000000020100000000000001000000000007E
:100240000000000000000000000000A4A4A40000C2
:1002500000A4A43030300000A4303030A4A400A4A6
:100260003030FFFF303000A430FF30303030A43069
:1002700030FF30303030A430A43030303030A43053
:10028000A43030303030A4A4A4000000000030308E
:1002900030A4A4000000A4A4303030A4000030300A
:1002A000A4A4303052003030303052305200303060
:1002B00030305230305230303030305230523030B6
:1002C0003030305230520000A4A4A4A4A4A400A44E
:1002D000ADADADADADADA4ADADFFA4A4A4A4A4AD32
:1002E000FFADADADADADA4ADA4AD49525252A4AD7C
:1002F000A4AD52ADADADA4ADA4AD52ADADADA4AD08
:10030000A4AD52ADADADA4A4A4A4A4A40000ADAD11
:10031000ADADADAD5200A4A4A4A4A4ADAD52ADAD9D
:10032000ADADAD52AD5252525252AD52AD52ADADD5
:10033000ADFFAD52AD52ADADADFFAD52AD52ADADB5
:10034000ADFFAD52AD520000000000A4A4A4000017
:1003500000A4A4E0E0E00000A4E0E0E0A4A400A485
:10036000E0E0FFFFE0E000A4E0FFE0E0E0E0A4E088
:10037000E0FFE0E0E0E0A4E0A4E0E0E0E0E0A4E012
:10038000A4E0E0E0E0E0A4A4A40000000000E0E0BD
:10039000E0A4A4000000A4A4E0E0E0A40000E0E0E9
:1003A000A4A4E0E05200E0E0E0E052E05200E0E02F
:1003B000E0E052E0E052E0E0E0E0E052E052E0E075
:1003C000E0E0E052E052A430A43030303030A430CD
:1003D000A43030303030A43030A43030303000A47D
:1003E00030A43030303000A4303052523030000071
:1003F000A4303030525200000052523030300000F1
:1004000000000052525230303030305230523030D2
:100410003030305230523030303010303052303096
:100420003030103052003030101030305200525204
:100430003030305200003030305252000000525202
:10044000520000000000A4ADA4AD52ADADADA4AD0E
:10045000A4AD52ADADADA4ADA4AD52ADADADA4ADA6
:10046000A4ADA4FFFFFFA4ADA4ADADADADADA4ADF3
:10047000AD52525252520052ADADADADADAD0000D5
:10048000525252525252ADADADFFAD52AD52ADAD22
:10049000ADFFAD52AD52ADADADFFAD52AD52FFFFB0
:1004A000FFFFAD52AD52ADADADADAD49AD52525203
:1004B000525249ADAD52ADADADADADAD520052529F
:1004C000525252520000A4E0A4E0E0E0E0E0A4E0D8
:1004D000A4E0E0E0E0E0A4E0E0A4E0E0E0E000A4EC
:1004E000E0A4E0E0E0E000A4E0E05252E0E0000040
:1004F000A4E0E0E052520000005252E0E0E00000D0
:10050000000000525252E0E0E0E0E052E052E0E051
:10051000E0E0E052E052E0E0E0E050E0E052E0E015
:10052000E0E050E05200E0E05050E0E05200525273
:10053000E0E0E0520000E0E0E052520000005252E1
:100540005200000000000000000000000000000059
:1005500000E0E0E0E0E00000E0E0E0E0E0E000E01B
:10056000E0E0E000000000E0E0E00000000000E06B
:10057000E0000000000000E0E0E00000000000E01B
:10058000E0E0E0E0E0E00000000000000000E0E06B
:10059000E0E0E0000000E0E0E0E0E0E0000000007B
:1005A000E0E0E0E0E000000000E0E0E0E00000006B
:1005B000E0E0E0E0E00000E0E0E0E0E0E000E0E0DB
:1005C000E0E0E0E0000000000000000000000000AB
:1005D000000000000000000000000000000000E03B
:1005E00000000000000000E0E0000000000000E06B
:1005F000E0000000000000E0E0000000000000E07B
:10060000E00000000000000000000000000000000A
:1006100000E0E0000000000000E0E0E0000000007A
:1006200000E0E0E0E000000000E0E0E0E0000000CA
:1006300000E0E0E0E000000000E0E0E0E0000000BA
:1006400000E0E0E0E000000000000000000000002A
:10065000E0E0E0E0E0E0000000E0E0E0E0E00000FA
:10066000000000000000000000000000000000008A
:10067000000000000000000000000000000000007A
:100680000000000000E00000000000000000E0E0CA
:10069000E0E0E0000000E0E0E0E0E0E0000000007A
:1006A000E0E0E0E0E000000000E0E0E0E00000E08A
:1006B000E0E0E0E00000E0E0E0E0E0000000E0E09A
:1006C000E00000000000000000000000000000004A
:1006D00000E0E00000000000E0E0E000000000E0DA
:1006E000E0E0E000000000E0E0E00000000000E0EA
:1006F000E0000000000000E0E0000000000000E07A
:10070000E000000000000000000000000000000009
:1007100000E0E0E0E0E00000E0E0E0E0E0E000E059
:10072000E0E0E000000000E0E0E00000000000E0A9
:10073000E0000000000000E0E0000000000000E039
:10074000E0E0E0E0E0E00000000000000000E0E0A9
:10075000E0E0E0000000E0E0E0E0E0E000000000B9
:1007600000E0E0E0E00000000000E0E0E000000069
:100770000000000000000000000000000000E0E0B9
:10078000E0E00000000000E0E0E0E0E0E0E000E0A9
:10079000E0E0E0E0000000E0E0E0E000000000E079
:1007A000E0E0E000000000E0E0E0E0000000000029
:1007B000E0E0E0000000000000E0E00000000000D9
:1007C000000000000000E0E0E0E0E00000000000C9
:1007D0000000000000000000000000000000000019
:1007E0000000000000000000000000000000000009
:1007F00000000000000000000000000000000000F9
:1008000000000000000000E0E0000000000000E048
:10081000E0E00000000000E0E0E0E000000000E0B8
:10082000E0E0E0E0E0E000E0E0E0E0E0E0E0000068
:10083000E0E0E0E0E0E0000000E0E0E0E0E0000018
:10084000000000000000000000E0E0E0E000000028
:10085000E0E0E0E0E00000E0E0E0E0E0E000E0E038
:10086000E0E0E0E00000E0E0E0E0E0000000E0E0E8
:10087000E0E000000000E0E0E00000000000000018
:100880000000000000000000000000E0E0E00000C8
:1008900000E0E0E0E0E00000E0E0E0E0E00000E0B8
:1008A000E0E0E0E0E0E000E0E0E0E0E0E0E00000E8
:1008B000E0E0E0E0E0E0000000E0E0E0E0E0000098
:1008C000000000000000E000000000000000000048
:1008D0000000000000000000000000000000E0E058
:1008E000E0E0E0E0E000E0E0E0E0E0E0E000E0E0C8
:1008F000E0E0E0E00000E0E0E0E0E0000000000018
:1009000000000000000000E0E0000000000000E047
:10091000E0000000000000E0E0E00000000000E077
:10092000E0E0E0E0E0E000E0E0E0E0E0E0E0000067
:10093000E0E0E0E0E0E0000000E0E0E0E0E0000017
:1009400000000000000000000000000000000000A7
:1009500000000000E0000000000000E0E000E0E037
:10096000E0E0E0E0E000E0E0E0E0E0E0E000E0E047
:10097000E0E0E0E00000E0E0E0E0E0000000000097
:1009800000000000000000E0E0E0E0E0E0E000E067
:10099000E0000000000000E0E0000000000000E0D7
:1009A000E0E0E0E0E0E000E0E0E0E0E0E0E00000E7
:1009B000E0E0E0E0E0E0000000E0E0E0E0E0000097
:1009C000000000000000E0E0E0E0E00000000000C7
:1009D0000000000000000000000000000000E0E057
:1009E000E0E0E0E0E000E0E0E0E0E0E0E000E0E0C7
:1009F000E0E0E0E0E000E0E0E0E0E0E00000000057
:100A00000000000000000B0117181917001A1B1C2A
:100A10001C191D020211121E1F02021112202102B6
:100A20000211131E2202021412231F020215161EA7
:100A30001F020224252A2B020224252C2D02022427
:100A4000262A2E020227252F2B020228292A2B02D2
:100A50000230313839020230313A3B02023032384A
:100A60003C020233313D3902023435383902023654
:100A7000373E3F020240414849020240414A4B0290
:100A8000024042484C020243414D4902024445485B
:100A900049020246474E4F0E0E505151515151528C
:100AA00053515151515154555657575757585957FB
:100AB000575757565A555A11121112111211121135
:100AC00012555A555A1E1F1E1F1E1F1E1F1E1F5530
:100AD0005A555A11121112111211121112555A555A
:100AE0005A1E1F1E1F20211E1F1E1F555A5B5C1100
:100AF0001211135D5E141211125F6061621E1F1EDF
:100B0000226364231F1E1F6566555A1112111215A8
:100B10001611121112555A555A1E1F1E1F1E1F1E46
:100B20001F1E1F555A555A1112111211121112116E
:100B300012555A555A1E1F1E1F1E1F1E1F1E1F55BF
:100B40005A555651515151676851515151565A6930
:100B500057575757576A6B57575757576C000000EE
:100B60000000000000000000000000000000000085
:100B70000000000000000000000000000000000075
:100B80000000000000000000000000000000000065
:100B90000000000000000000000000000000000055
:100BA00000000000002020202020202020202020E5
:100BB0002020202020000000000000000000000095
:100BC0000000000000000000000000000000000025
:100BD0000000000000000000000000000000000015
:100BE00000000000002F2F2F2F2F2F2F2F2F2F2F00
:100BF0002F2F2F2F2F00000000000000000000000A
:100C000000000000000000000000000000000000E4
:100C100000000000000000000000000000000000D4
:100C20000000000000D0D0D0D0D0D0D0D0D0D0D0D4
:100C3000D0D0D0D0D00000000000000000000000A4
:100C400000000000000000000000000000000000A4
:100C50000000000000000000000000000000000094
:100C600000000000000E0E0E0E0E0E0E0E0E0E0EEA
:100C70000E0E0E0E0E00000000000000000000002E
:100C80000000000000000000000000000000000064
:100C90000000000000000000000000000052A4A4BA
:100CA000A4A4A4A4A4A4A4A4A45252A4A4A4A452FA
:100CB000525252A4A4A45252525252A4A4A4525228
:100CC000525252A4A4A4A452525252A4A4A4A4A422
:100CD000A45252A4A452A4A4A4A4A4A4A4A4A4A4CA
:100CE000A4A4A4A452A4A45252A4A4A4A4A4A4520C
:100CF000525252A4A4A4A45252525252A4A4A45296
:100D000052525252A4A4A452525252A4A4A4A45285
:100D100052A4A4A4A4A4A4A4A4A4A4A4520000FF24
:100D2000FFFFFFFF0000FF00000000FFFF00FF00CB
:100D3000000000FFFF00FF00000000FFFF00FF00B9
:100D40000000FFFFFF00FFFFFFFFFFFFFF0000FFAE
:100D5000FFFFFFFF00000000000000000000000097
:100D600000FF000000000000FFFFFF000000000087
:100D7000FFFFFF0000000000FFFFFF000000000079
:100D8000FFFFFF0000000000FFFFFF000000000069
:100D900000FF00000000000000000000000000FF55
:100DA000FFFFFFFF0000FFFF0000FFFFFF0000FF4D
:100DB000000000FFFF0000000000FFFF0000000037
:100DC000FFFF0000000000FFFFFFFFFFFF00FFFF2D
:100DD000FFFFFFFF0000000000000000000000FF18
:100DE000FFFFFFFF000000000000FFFF0000000009
:100DF00000FFFF00000000FFFFFFFFFFFF000000FB
:100E0000000000FFFF00FFFFFFFFFFFFFF0000FFEC
:100E1000FFFFFFFF000000000000000000000000D6
:100E20000000FFFF0000000000FFFFFF00000000C7
:100E3000FF00FFFF000000FF0000FFFF0000FFFFBA
:100E4000FFFFFFFFFF0000FFFFFFFFFFFF000000AD
:100E50000000FFFF00000000000000000000FFFF96
:100E6000FFFFFFFF0000FFFF00000000000000FF89
:100E7000FFFFFFFF00000000000000FFFF00000078
:100E8000000000FFFF00FFFFFFFFFFFFFF0000FF6C
:100E9000FFFFFFFF0000000000000000000000FF57
:100EA000FFFFFF000000FF000000FFFF0000FF0049
:100EB000000000000000FFFFFFFFFFFF0000FF0039
:100EC000000000FFFF00FFFFFFFFFFFFFF0000FF2C
:100ED000FFFFFFFF0000000000000000000000FF17
:100EE000FFFFFFFF0000FF00000000FFFF00000009
:100EF000000000FFFF00000000FFFFFF00000000F7
:100F0000FFFF0000000000FFFFFF0000000000FFE7
:100F1000FFFF00000000000000000000000000FFD4
:100F2000FFFFFFFF0000FFFF0000FFFF000000FFCA
:100F3000FFFFFF00000000FFFFFFFFFF0000FFFFBB
:100F4000000000FFFF00FFFFFFFFFFFFFF0000FFAB
:100F5000FFFFFFFF0000000000000000000000FF96
:100F6000FFFFFFFF0000FF000000FFFFFF00FF008A
:100F7000000000FFFF0000FFFFFFFFFFFF00000079
:100F8000000000FFFF00FF00000000FFFF0000FF67
:100F9000FFFFFFFF000000000000000000F6F6F673
:100FA000F6F6F6A451F6F6F6F6F6F6A451F6F6F6CF
:100FB000F6F6F6A451F6F6F6F6F6F6A451F6F6F6BF
:100FC000F6F6F6A451F6F6F6F6F6F6A451A4A4A4A5
:100FD000A4A4A4A451515151515151515151FFF662
:100FE000F6F6F6F6F651FFF6F6F6F6F6F651FFF6D9
:100FF000F6F6F6F6F651FFF6F6F6F6F6F651FFF6C9
:10100000F6F6F6F6F651FFF6F6F6F6F6F651A4A465
:10101000A4A4A4A4A4515151515151515151FFF6CE
:10102000F6F6F6F6F651FFF6F6F6F6F65251FFF63C
:10103000F6F6F6F65251FFF6F6F6F6520051FFF6C6
:10104000F6F6F6520051FFF6F6F652000051A4A44F
:10105000A4A45200005151515151520000F6F6F62D
:10106000F6F6F6A45152F6F6F6F6F6A45152F6F656
:10107000F6F6F6A4510052F6F6F6F6A4510052F632
:10108000F6F6F6A451000052F6F6F6A4510000520E
:10109000A4A4A4A4510000525151515151F65252EE
:1010A0000000000000F6F6F65252000000F6F6F6D8
:1010B000F6F6525252F6F6F6F6F6F6A451F6F6F6B3
:1010C000F6F6F6A451F6F6F6F6F6F6A451A4A4A4A4
:1010D000A4A4A4A4515151515151515151000000A7
:1010E0000000FFFFF6000000FFFFF6F6F652FFFFDC
:1010F000F6F6F6F6F651FFF6F6F6F6F6F651FFF6C8
:10110000F6F6F6F6F651FFF6F6F6F6F6F651A4A464
:10111000A4A4A4A4A451515151515151510000FF14
:10112000FFFFFFFF0000FFFFFFFFFFFFFF00FF00CB
:1011300000FF00000000000000FF000000000000B1
:10114000FFFF000000000000FFFF000000000000A3
:10115000FFFF000000000000000000000000000091
:1011600000FF00000000000000FFFF000000000082
:1011700000FFFF000000000000FFFF000000000073
:10118000FFFFFF0000000000FFFFFF000000000065
:10119000FFFFFF000000000000000000000000FF53
:1011A000000000000000FFFF000000000000FF0042
:1011B000000000000000FF00000000000000FF0031
:1011C00000000000FF00FFFFFFFFFFFFFF0000FF28
:1011D000FFFFFFFF0000000000000000000000FF14
:1011E000FFFFFFFF0000FFFF000000FFFF00FF0008
:1011F0000000FFFFFF00FFFFFFFFFFFF0000FFFFFA
:10120000000000000000FFFF00000000000000FFE1
:1012100000000000000000000000000000000000CE
:10122000000000FF0000FF00000000FFFF00FF00C3
:10123000000000FFFF00FF00000000FFFF00FFFFB5
:101240000000FFFFFF00FFFFFFFFFFFF000000FFA8
:10125000FFFFFF000000000000000000000000FF92
:10126000FFFFFFFF00000000000000FFFF00000084
:101270000000FFFF0000000000FF0000000000FF72
:10128000FF0000000000FFFFFFFFFFFFFF0000FF67
:10129000FFFFFFFF0000000000000000000000FF53
:1012A000FFFFFFFF0000FFFF000000FFFF00FF0047
:1012B000000000000000FFFFFFFFFFFF0000FF0035
:1012C000000000000000FFFFFFFFFFFFFF0000FF26
:1012D000FFFFFFFFFF000000000000000051515120
:1012E0005151515151FFFFFFFFFFFFA451F6F6F698
:1012F000F6F6F6A451F6F6F6F6F6F6A451F6F6F67C
:10130000F6F6F6A451F6F6F6F6F6F6A451F6F6F66B
:10131000F6F6F6A451F6F6F6F6F6F6A4515151514A
:10132000515151515151FFFFFFFFFFFFFF51FFF698
:10133000F6F6F6F6F651FFF6F6F6F6F6F651FFF685
:10134000F6F6F6F6F651FFF6F6F6F6F6F651FFF675
:10135000F6F6F6F6F651FFF6F6F6F6F6F6515151B8
:101360005151515151FFFFFFFFFFFFA451F6F6F617
:10137000F6F6F6A451F6F6F6F6F6F6A451F6F6F6FB
:10138000F6F6F6A451F6F6F6F6F6525252F6F6F6E0
:101390005252000000F6525200000000005151511C
:1013A000515151515151FFFFFFFFFFFFFF51FFF618
:1013B000F6F6F6F6F651FFF6F6F6F6F6F651FFF605
:1013C000F6F6F6F6F6525252F6F6F6F6F60000008B
:1013D0005252F6F6F600000000005252F6515151FA
:1013E000515152000051FFFFFFFF52000051FFF624
:1013F000F6F652000051FFF6F6F6F6520051FFF6EF
:10140000F6F6F6520051FFF6F6F6F6F65251FFF6F2
:10141000F6F6F6F65251FFF6F6F6F6F6F60000523C
:1014200051515151510000FFFFFFFFA4510000FF37
:10143000F6F6F6A45100FFF6F6F6F6A45100FFF614
:10144000F6F6F6A451FFF6F6F6F6F6A451FFF6F618
:10145000F6F6F6A451F6F6F6F6F6F6A451F6F6A46C
:10146000A4A4A4A4A4F6A4ADADADADADADA4ADADA2
:10147000FFA4A4A4A4A4ADFFADADADADADA4ADA437
:10148000AD49525252A4ADA4AD52ADADADA4ADA480
:10149000AD52ADADADA4ADA4AD52ADADADA4A4A45F
:1014A000A4A4A4F6F6ADADADADADAD52F6A4A4A422
:1014B000A4A4ADAD52ADADADADAD52AD5252525290
:1014C00052AD52AD52ADADADFFAD52AD52ADADADC1
:1014D000FFAD52AD52ADADADFFAD52AD52A4A4A41F
:1014E000A4A4A4F6F6ADADADADADAD5252A4A4A486
:1014F000A4A4ADAD52ADADADADAD52AD5252525250
:1015000052AD52AD52ADADADFFAD52AD52ADADAD80
:10151000FFAD52AD52ADADADFFAD52AD52F6F6A43A
:10152000A4A4A4A4A452A4ADADADADADADA4ADAD85
:10153000FFA4A4A4A4A4ADFFADADADADADA4ADA476
:10154000AD49525252A4ADA4AD52ADADADA4ADA4BF
:10155000AD52ADADADA4ADA4AD52ADADADF652A49E
:10156000A4A4A4A4A4F6A4ADADADADADADA4ADADA1
:10157000FFA4A4A4A4A4ADFFADADADADADA4ADA436
:10158000AD49525252A4ADA4AD52ADADADA4ADA47F
:10159000AD52ADADADA4ADA4AD52ADADADA4A4A45E
:1015A000A4A4A4FFF6ADADADADADAD52F6A4A4A418
:1015B000A4A4ADAD52ADADADADAD52AD525252528F
:1015C00052AD52AD52ADADADFFAD52AD52ADADADC0
:1015D000FFAD52AD52ADADADFFAD52AD52A4ADA415
:1015E000AD52ADADADA4ADA4AD52ADADADA4ADA405
:1015F000AD52ADADADA4ADA4ADA4FFFFFFA4ADA4AD
:10160000ADADADADADA4ADAD5252525252F652ADEC
:10161000ADADADADADF6F6525252525252ADADAD8A
:10162000FFAD52AD52ADADADFFAD52AD52ADADADB2
:10163000FFAD52AD52FFFFFFFFAD52AD52ADADADAC
:10164000ADAD49AD525252525249ADAD52ADADADB4
:10165000ADADAD52F6525252525252F6F6A4ADA46E
:10166000AD52ADADADA4ADA4AD52ADADADA4ADA484
:10167000AD52ADADADA4ADA4ADA4FFFFFFA4ADA42C
:10168000ADADADADADA4ADAD5252525252F652AD6C
:10169000ADADADADADF652525252525252ADADADAE
:1016A000FFAD52AD52ADADADFFAD52AD52ADADAD32
:1016B000FFAD52AD52FFFFFFFFAD52AD52ADADAD2C
:1016C000ADAD49AD525252525249ADAD52ADADAD34
:1016D000ADADAD52F652525252525252F6ADADAD80
:1016E000FFAD52AD52ADADADFFAD52AD52ADADADF2
:1016F000FFAD52AD52FFFFFFFFAD52AD52ADADADEC
:10170000ADAD49AD525252525249ADAD52ADADADF3
:10171000ADADAD5252525252525252F6F6A4ADA451
:10172000AD52ADADADA4ADA4AD52ADADADA4ADA4C3
:10173000AD52ADADADA4ADA4ADA4FFFFFFA4ADA46B
:10174000ADADADADADA4ADAD5252525252FF52ADA2
:10175000ADADADADADF6F6525252525252F6F6F66E
:10176000F6F6A4A4A4F6F6F6A4A4303030F6F6A457
:10177000303030A4A4F6A43030FFFF3030F6A4306F
:10178000FF30303030A43030FF30303030A430A45F
:101790003030303030A430A43030303030A4A4A405
:1017A000F6F6F6F6F6303030A4A4F6F6F6A4A43039
:1017B0003030A4F6F63030A4A4303052F630303059
:1017C00030523052F63030303052303052303030CB
:1017D00030305230523030303030523052A4A4A425
:1017E000F6F6F6F6F6303030A4A4F6F652A4A4309D
:1017F0003030A4F6523030A4A430305200303030B3
:101800003052305200303030305230305230303080
:1018100030305230523030303030523052F6F6F6EE
:10182000F6F6A4A4A452F6F6A4A430303052F6A4DE
:10183000303030A4A400A43030FFFF303000A4309A
:10184000FF30303030A43030FF30303030A430A49E
:101850003030303030A430A43030303030F6525296
:101860000000A4A4A4F6F6F6A4A4303030F6F6A442
:10187000303030A4A4F6A43030FFFF3030F6A4306E
:10188000FF30303030A43030FF30303030A430A45E
:101890003030303030A430A43030303030A4A4A404
:1018A0000000FFFFF6303030A4A4F6F6F6A4A43012
:1018B0003030A4F6F63030A4A4303052F630303058
:1018C00030523052F63030303052303052303030CA
:1018D00030305230523030303030523052520000BE
:1018E00000000000000000000000080808000000E0
:1018F0000808080000000008081010080800000888
:10190000100808080800080810080808080008005F
:10191000080808080800080008080808080000006F
:101920000000000052080808000000000000000845
:10193000080800000008080000080800000808085F
:10194000080008000008080808000808000808083F
:1019500008080008000808080808000800A430A4C7
:101960003030303030A430A43030303030A430301B
:10197000A430303030F6A430A430303030F6A4300B
:101980003052523030F6F6A43030305252F6F6F67D
:101990005252303030F6F6F6F6F6525252303030BF
:1019A00030305230523030303030523052303030AF
:1019B000301030305230303030103052F63030107D
:1019C00010303052F6525230303052F6F63030305D
:1019D0005252F6F6F6525252F6F6F6F6F6A430A445
:1019E0003030303030A430A43030303030A430309B
:1019F000A430303030F6A430A430303030F6A4308B
:101A00003052523030F6F6A43030305252F6F6F6FC
:101A10005252303030F65252000052525230303072
:101A2000303052305230303030305230523030302E
:101A3000301030305230303030103052F6303010FC
:101A400010303052F6525230303052F6F6303030DC
:101A50005252F6F6F652525200005252F6303030E0
:101A600030305230523030303030523052303030EE
:101A700030103030523030303010305200303010B2
:101A80001030305200525230303052F65230303036
:101A90005252F6F652525252F6F6F6F6F6A430A428
:101AA0003030303030A430A43030303030A43030DA
:101AB000A43030303000A430A43030303000A430B6
:101AC0003052523030FFF6A43030305252FFF6F62A
:101AD0005252303030F6F6F6F6F652525200080006
:101AE000080808080800080008080808080008088E
:101AF0000008080808000008000808080800000896
:101B000008000008080000000808080000000000A5
:101B10000000080808520000000000000008080843
:101B20000808000800080808080800080008080855
:101B30000800080800080808080008000008080055
:101B40000008080000000008080800000008080855
:101B5000000000000000000000000000FFF6F6F6A4
:101B6000F6F6A4A4A4F6F6F6A4A4E0E0E0F6F6A443
:101B7000E0E0E0A4A4F6A4E0E0FFFFE0E0F6A4E0EB
:101B8000FFE0E0E0E0A4E0E0FFE0E0E0E0A4E0A4CB
:101B9000E0E0E0E0E0A4E0A4E0E0E0E0E0A4A4A471
:101BA000F6F6F6F6F6E0E0E0A4A4F6F6F6A4A4E075
:101BB000E0E0A4F6F6E0E0A4A4E0E052F6E0E0E025
:101BC000E052E052F6E0E0E0E052E0E052E0E0E037
:101BD000E0E052E052E0E0E0E0E052E052A4A4A4F1
:101BE000F6F6F6F6F6E0E0E0A4A4F6F652A4A4E0D9
:101BF000E0E0A4F652E0E0A4A4E0E05200E0E0E07F
:101C0000E052E05200E0E0E0E052E0E052E0E0E0EC
:101C1000E0E052E052E0E0E0E0E052E052F6F6F6BA
:101C2000F6F6A4A4A452F6F6A4A4E0E0E052F6A4CA
:101C3000E0E0E0A4A400A4E0E0FFFFE0E000A4E016
:101C4000FFE0E0E0E0A4E0E0FFE0E0E0E0A4E0A40A
:101C5000E0E0E0E0E0A4E0A4E0E0E0E0E0F6525202
:101C60000000A4A4A4F6F6F6A4A4E0E0E0F6F6A42E
:101C7000E0E0E0A4A4F6A4E0E0FFFFE0E0F6A4E0EA
:101C8000FFE0E0E0E0A4E0E0FFE0E0E0E0A4E0A4CA
:101C9000E0E0E0E0E0A4E0A4E0E0E0E0E0A4A4A470
:101CA0000000FFFFF6E0E0E0A4A4F6F6F6A4A4E04E
:101CB000E0E0A4F6F6E0E0A4A4E0E052F6E0E0E024
:101CC000E052E052F6E0E0E0E052E0E052E0E0E036
:101CD000E0E052E052E0E0E0E0E052E0525200008A
:101CE0000000000000000000000040404000000034
:101CF0004040400000000040404848404000004054
:101D00004840404040004040484040404000400083
:101D10004040404040004000404040404000000003
:101D20000000000052404040000000000000004061
:101D30004040000000404000004040000040404063
:101D400040004000004040404000404000404040D3
:101D500040400040004040404040004000A4E0A41B
:101D6000E0E0E0E0E0A4E0A4E0E0E0E0E0A4E0E027
:101D7000A4E0E0E0E0F6A4E0A4E0E0E0E0F6A4E027
:101D8000E05252E0E0F6F6A4E0E0E05252F6F6F659
:101D90005252E0E0E0F6F6F6F6F6525252E0E0E09B
:101DA000E0E052E052E0E0E0E0E052E052E0E0E06B
:101DB000E050E0E052E0E0E0E050E052F6E0E050D9
:101DC00050E0E052F65252E0E0E052F6F6E0E0E099
:101DD0005252F6F6F6525252F6F6F6F6F6A4E0A491
:101DE000E0E0E0E0E0A4E0A4E0E0E0E0E0A4E0E0A7
:101DF000A4E0E0E0E0F6A4E0A4E0E0E0E0F6A4E0A7
:101E0000E05252E0E0F6F6A4E0E0E05252F6F6F6D8
:101E10005252E0E0E0F652520000525252E0E0E04E
:101E2000E0E052E052E0E0E0E0E052E052E0E0E0EA
:101E3000E050E0E052E0E0E0E050E052F6E0E05058
:101E400050E0E052F65252E0E0E052F6F6E0E0E018
:101E50005252F6F6F652525200005252F6E0E0E0CC
:101E6000E0E052E052E0E0E0E0E052E052E0E0E0AA
:101E7000E050E0E052E0E0E0E050E05200E0E0500E
:101E800050E0E052005252E0E0E052F652E0E0E072
:101E90005252F6F652525252F6F6F6F6F6A4E0A474
:101EA000E0E0E0E0E0A4E0A4E0E0E0E0E0A4E0E0E6
:101EB000A4E0E0E0E000A4E0A4E0E0E0E000A4E0D2
:101EC000E05252E0E0FFF6A4E0E0E05252FFF6F606
:101ED0005252E0E0E0F6F6F6F6F6525252004000BA
:101EE00040404040400040004040404040004040B2
:101EF0000040404040000040004040404000004062
:101F00004000004040000000404040000000000051
:101F100000004040405200000000000000404040EF
:101F200040400040004040404040004000404040B1
:101F30004000404000404040400040000040400021
:101F40000040400000000040404000000040404091
:101F5000000000000000000000000000FF00000082
:101F60000000FFFFFF000000FFFFF6F6F60000FF95
:101F7000F6F6F6F6F600FFF6F6F6F6F6F600FFF6DB
:101F8000F6F6F6F6F6FFF6F6F6F6F6F6F6FFF6F6DF
:101F9000F6F6F6F6F6FFF6F6F6F6F6F6F6FFFFFFBD
:101FA000FFFFFFFFFFF6F6F6F6F6F6F6F6F6F6F6A4
:101FB000F6F6F6F6F6F6F6F6F6F6F6F6F6F6F6F6C1
:101FC000F6F6F6F6F6F6F6F6F6F6F6F6F6F6F6F6B1
:101FD000F6F6F6F6F6F6F6F6F6F6F6F6F6FFFFFF86
:101FE000FFFFFFFFFFF6F6F6F6F6F6F6F6F6F6F664
:101FF000F6F6F6F6F6F6F6F6F6F6F6F6F6F6F6F681
:10200000F6F6F6F6F6F6F6F6F6F6F6F6F6F6F6F670
:10201000F6F6F6F6FFF6F6F6F6F6FFFFFFFFFFFF21
:10202000FFFFFFFFFFF6F6F6F6F6F6F6F6F6F6F623
:10203000F6F6F6F6F6F6F6F6F6F6F6F6F6F6F6F640
:10204000F6F6F6F6F6F6F6F6F6F6F6F6F6FFF6F627
:10205000F6F6F6F6F6FFFFFFF6F6F6F6F6FFFFFFEA
:102060000000000000F6F6F6A4A4000000F6F6F664
:10207000F6F6A40000F6F6F6F6F6F65200F6F6F6D8
:10208000F6F6F65200F6F6F6F6F6F6F652F6F6F62E
:10209000F6F6F6F652F6F6F6F6F6F6F652FFF6F61F
:1020A000F6F6F6F6F6FFF6F6F6F6F6F6F6FFF6F6BE
:1020B000F6F6F6F6F6FFF6F6F6F6F6F6F6FFF6F6AE
:1020C000F6F6F6F6F6FFF6F6F6F6F6F6F6FFF6F69E
:1020D000F6F6F6F6F6FFF6F6F6F6F6F6F6F6F6F697
:1020E000F6F6F6F6F6F6F6F6F6F6F6F6F6F6F6F690
:1020F000F6F6F6F6F6F6F6F6F6F6F6F6F6F6F6F680
:10210000F6F6F6F6F6F6F6F6F6F6F6F6F6F6F6F66F
:10211000F6F6F6F6F6F6F6F6F6F6F6F6F6F6F6F65F
:10212000F6F6F6F6F6F6F6F6F6F6F6F6F6F6F6F64F
:10213000F6F6F6F6F6F6F6F6F6F6F6F6F6F6F6F63F
:10214000F6F6F6F6F6F6F6F6F6F6F6F6F6F6F6F62F
:10215000F6F6F6F6F65252525252525252F6F6F63F
:10216000FFFFFFA4A4F6FFFFFFA4A4F6F6F6A4A4C5
:10217000A4F6F6F6F6F6F6F6F6F6F6F6F6F6F6F651
:10218000F6F6F6F6F6F6F6F6F6F6F6F6F6F6F6F6EF
:10219000F6F6F6F6F65252525252525252A4A4FF9A
:1021A000FFFFF6F6F6F6F6A4A4FFFFFFF6F6F6F646
:1021B000F6A4A4A4F6F6F6F6F6F6F6F6F6F6F6F6B5
:1021C000F6F6F6F6F6F6F6F6F6F6F6F6F6F6F6F6AF
:1021D000F6F6F6F6F65252525252525252F6F6F6BF
:1021E000F6F6F6F652F6F6F6F6F6F6F652F6F6F6D7
:1021F000F6F6F6F652F6F6F6F6F6F6F652F6F6F6C7
:10220000F6F6F6F652F6F6F6F6F6F6F652F6F6F6B6
:10221000F6F6F6F652F6F6F6F6F6F6F652FFF6F69D
:10222000F6F6F6F6F6FFF6F6F6F6F6F6F6FFF6F63C
:10223000F6F6F6F6F6FFF6F6F6F6F6F6F6FFF6F62C
:10224000F6F6F6F6F6FFF6F6F6F6F6F6FFFFF6F613
:10225000F6F6F6F6FFFFF6F6F6F6F6FFFFF6F6F6FA
:10226000F6F6F6F652F6FFF6F6F6F6F652F6FFF644
:10227000F6F6F6F652FFFFF6F6F6F6F652FFA4F67D
:10228000F6F6F6F652FFF6F6F6F6F6F652A4F6F67F
:10229000F6F6F6F652F6F6F6F6F6F6F652520000B6
:1022A000000000000000000000000000000000002E
:1022B000000000000000000000000000000000001E
:1022C000000000000000000000000000000000000E
:1022D00000000000000000000000000000000000FE
:1022E000000000005200000000000000000000009C
:1022F00000000000000000000000000000000000DE
:1023000000000000000000000000000000000000CD
:1023100000000000000000000000000000FFF6F6D2
:10232000F6F6F6F6F6FFF6F6F6F6F6FFF6FFF6F632
:10233000F6F6F6FFF6FFF6F6F6F6F6FFFFFFF6F610
:10234000F6F6F6A4FFFFF6F6F6F6F6F6FFFFF6F65B
:10235000F6F6F6F6A4FFF6F6F6F6F6F6F6F6F6F666
:10236000F6F6F6F652F6F6F6F6F6F6F652F6F6F655
:10237000F6F6F6F652F6F6F6F6F6F6F652F6F6F645
:10238000F6F6F6F652FFF6F6F6F6F6F652FFF6F623
:10239000F6F6F6F652FFFFF6F6F6F6F652FFF6F60A
:1023A000F6F6F6FFFFFFF6F6F6F6F6A4FFFFF6F6F2
:1023B000F6F6F6F6FFFFF6F6F6F6F6F6A4FFF6F6F4
:1023C000F6F6F6F6F6FFF6F6F6F6F6F6F6FFF6F69B
:1023D000F6F6F6F6F6FFF6F6F6F6F6F6F6F6F6F694
:1023E000F6F6F6F652F6F6F6F6F6F6F652FFF6F6CC
:1023F000F6F6F6F652FFF6F6F6F6F6F652FFFFF6AA
:10240000F6F6F6F652A4FFF6F6F6F6F652F6FFF6F4
:10241000F6F6F6F652F6A4F6F6F6F6F652000000D8
:1024200000000000000000000000000000000000AC
:10243000000000000000000000000000000000009C
:10244000000000000000000000000000000000008C
:10245000000000000052000000000000000000002A
:10246000000000000000000000000000000000006C
:10247000000000000000000000000000000000005C
:10248000000000000000000000000000000000004C
:10249000000000000000000000000000FFFFF6F652
:1024A000F6F6F6F6F6FFF6F6F6F6F6F6F6FFF6F6BA
:1024B000F6F6F6F6FFFFF6F6F6F6F6F6FFFFF6F698
:1024C000F6F6F6FFFFFFF6F6F6F6F6FFA4FFF6F6D1
:1024D000F6F6F6FFF6FFF6F6F6F6F6A4F6FFFFF6CA
:1024E000F6F6F6F652FFA4F6F6F6F6F652FFF6F614
:1024F000F6F6F6F652A4F6F6F6F6F6F652F6F6F616
:10250000F6F6F6F652F6F6F6F6F6F6F652F6F6F6B3
:10251000F6F6F6F652F6F6F6F6F6F6F652FFFFFF88
:10252000FFFFFFFFFFF6F6F6F6F6F6F6F6F6F6F61E
:10253000F6F6F6F6F6F6F6F6F6F6F6F6F6F6F6F63B
:10254000F6F6F6F6F6F6F6F6F6F6F6F6F6F6FFFF19
:10255000FFF6F6F6F6F6A4A4FFFFFFF6F6FFFFFF80
:10256000FFFFFFFFFFF6F6F6F6F6F6F6F6F6F6F6DE
:10257000F6F6F6F6F6F6F6F6F6F6F6F6F6F6F6F6FB
:10258000F6F6F6F6F6F6F6F6F6F6F6F6F6F6F6F6EB
:10259000F6FFFFFFF6F6F6FFFFFFA4A4F6FFF6F640
:1025A000F6F6F6F6F6FFF6F6F6F6F6F6F6FFF6F6B9
:1025B000F6F6F6F6F600A4F6F6F6F6F6F600A4F64B
:1025C000F6F6F6F6F6000052F6F6F6F6F60000001D
:1025D0005252F6F6F60000000000525252F6F6F69D
:1025E000A4A4FFFFFFF6F6F6F6F6A4A4FFF6F6F6AF
:1025F000F6F6F6F6A4F6F6F6F6F6F6F6F6F6F6F6CD
:10260000F6F6F6F6F6F6F6F6F6F6F6F6F6F6F6F66A
:10261000F6F6F6F6F65252525252525252FFFFFF5F
:10262000A4A4F6F6F6FFA4A4F6F6F6F6F6A4F6F6DB
:10263000F6F6F6F6F6F6F6F6F6F6F6F6F6F6F6F63A
:10264000F6F6F6F6F6F6F6F6F6F6F6F6F6F6F6F62A
:10265000F6F6F6F6F65252525252525252F6F6F63A
:10266000F6F6F6F652F6F6F6F6F6F6F652F6F6F652
:10267000F6F6F6F652F6F6F6F6F6F65200F6F6F638
:10268000F6F6F65200F6F6F6F6F6520000F6F6F614
:10269000525200000052525200000000000AE01F97
:1026A000E212F304FC0102FDFDEA20DC23E01BE260
:1026B0000C03F40CF400FB09F70BE910F311ED081F
:1026C000F80502FA03F709FB04F606FC04F902FD1B
:1026D00002FDFFFF00FFFEFFFFFDFC10FC0B03E30C
:1026E000EFE1010C291EFCFCDBE1DBF7162D49189C
:1026F000FFE1B4C9DA0839543302F0AFC2D6F62785
:102700003F411DF9CDD4D1EA1222282403E6E5D9B0
:10271000EB0907131B09F8EFF4F3FFFC0B0D04089A
:10272000FBEFF101FB060F0004FDF1F7FDFE060AC9
:10273000FF02FEF7FDFCF90202FE0704FB03FCF5B5
:10274000FAFE0006090009FBF5FCF2F9020908107F
:10275000FFEAF5EAF80B0D131C0DF3E5CBDE0C0DCB
:1027600023351301E1C9C0FD1D32331C08E5E6C65F
:10277000E1F2222B1F05FA04F4FFDFED0A2417040F
:1027800004F8FB08F8F10508FBF805FA161208FE34
:10279000F0EDF1FDFD1C08FF00FAF20202FD11054B
:1027A00000F6ECEC0BF5FE1306020AF4EAFEF1FF6C
:1027B000090B000AEFEDF0F004100C0209F9F6F530
:1027C000F3F20C070602F7F0FBF5EB04030E10031F
:1027D000F4FCF0F1FDFA071006F900F1F8FBFB013B
:1027E00005080204F3F9FEF9FC00020809FBF7F5FD
:1027F000FBFE0302070504FCF5FEFE04FF030201D5
:10280000FEFFFDFC0303010103FD01FFFB000300CC
:102810000701FE00FEFDFE010109FDFFFFFDFFFFB8
:10282000FEFC04010203FDFFFEFEFFFFFF000200AD
:10283000FCFEFD0302FF00FF00FDFEFD02FFFFFFA7
:10284000FDFDFEFDFE020103FFFFFCFFFCFEFFFE9F
:10285000020102FDFCFAFEFF01FF0000FEFEFBFF8D
:1028600000010000FDFDFFFCFFFF01FF00FEFDFE7B
:10287000FDFEFD00010000FDFDFEFEFE0001000169
:10288000FDFDFFFD00FF010100FEFDFEFD0000FF5C
:102890000100FFFFFDFEFD00000100FE00FEFFFD48
:1028A000FF000001FFFEFEFFFEFEFF010101FFFE33
:1028B000FEFFFFFEFFFF010000FEFEFEFFFFFE0029
:1028C0000001FFFEFDFFFFFFFFFF010000FEFEFE17
:1028D000FF00FF000000FFFFFDFEFF01FF0000FF03
:1028E00000FEFEFE000002FFFFFFFEFEFF000001F3
:1028F000FFFFFEFEFEFFFF0001FFFFFFFDFEFF00EA
:10290000000100FFFEFCFDFF00FF00FFFFFFFFFED8
:10291000FFFF01FEFEFCFC0A08050EE6E7E5E11EEE
:1029200019330DF2DACDE4E728284126F4D9CBDDBE
:10293000F21616181602EAE8E6FE07080600F9FF86
:1029400003F401FF090303F5FF00F807FA09020584
:10295000F7F9FBF807FD0203FFFCFCFAFF0504FE94
:1029600000FAFA01FE0304050002F8FBFDFAFFFE7F
:10297000020306FCFDFAFB00FF010102FEFFFDFE63
:10298000010400FFFBFAFCFE0002040001FAFBFD5B
:10299000010401FFFCFEFEFEFFFF0101FEFDFD0044
:1029A0000101FFFF000001FFFEFDFFFEFFFF00022F
:1029B00000FFFDFEFF020100FFFDFDFCFE01030321
:1029C00001FEFCFCFEFDFF00010100FEFEFEFDFE1F
:1029D000FEFF0000FFFFFEFE00FFFF0000FFFEFD08
:1029E000FE000000FFFFFEFEFDFDFEFFFFFFFFFEFD
:1029F000FFFFFEFDFEFEFF00FEFFFFFFFFFFFFFFEC
:102A0000FFFEFEFEFF0000FFFFFEFFFEFFFF0000D7
:102A100000FFFEFEFFFFFF00FF00FF00FFFF00FFC3
:102A2000FEFEFEFF00FFFEFFFFFF00FFFF0000FFB6
:102A3000FFFFFF00FFFF000000FFFEFEFFFEFFFFA5
:102A4000FF000000FFFEFF00FF00FFFF0000FFFF90
:102A5000FEFFFEFFFFFF00FFFFFEFFFEFFFF00FF88
:102A6000FFFEFFFEFFFF00FF00FFFFFFFEFFFE0077
:102A7000FF00FF00FFFFFDFD05030306EDF2F0F48C
:102A8000130F1D01F4E6E6F3FC1A14220BF4E6E53D
:102A9000F1FE100A0D06FEF3F1F502060602FCF93E
:102AA000FDFEFC0403070101F5FDFCFE06FE080027
:102AB00001F6FAFBFE04FD03FFFDFCFEFE0105022C
:102AC00000FEFAF9FEFE020F0F0805F0D9D8DFFD6F
:102AD0003235290BD9C0BBD50340515424D6BAB9DD
:102AE000C6042636441AF7CED0DEFD0304130F0FBA
:102AF000F8F1FAF9FDFBFC0B070DF7EAF8050A13EC
:102B00000C00FFECEFF8FA0B1003FDF6FB0100F7E9
:102B1000FAFDFB01040A080DFEEAF0F1060F0E07AC
:102B2000FDF9EDF8F207100B0DFDF4EDF9F50507D1
:102B3000071108FBF0EDEFFF060C0C08FDFAEEF2B2
:102B4000FD080E0702F8FEF5FFFD00030400F6FD88
:102B5000FD0300FFFD00000001FF0000FEFCFDFC86
:102B60000103010002FD0001FDFEFBFEFD00030468
:102B700001FDFEFCFDFEFFFE02010100FFFF00FD66
:102B8000FCFFFCFFFDFFFF0100FFFDFCFEFE00FF60
:102B9000FF000100FFFF00FFFEFDFCFDFF01000044
:102BA000FFFFFEFDFCFEFF0202FFFFFEFFFEFEFE3A
:102BB00001050001FAF4FFF803080A04FAF6F0FC34
:102BC000FC070A0A07FDF6F3F9FD0606030400FBFD
:102BD000F9FBFE0403FFFCFBFC00FF00010201FF08
:102BE000FCFA010003FF0000FFFFFAFEFD0200FFF8
:102BF000FEFEFEFEFEFF010301FDFCFBFE010202E4
:102C000002FFFEFDFAFDFE020101FEFFFEFE01FED7
:102C100001FEFBFBFA01070504FCF9F7FAFD0208C7
:102C20000607FEFAF8F9FD0104020300FDF9F9FDBB
:102C3000020401FFFEFCFDFDFF030302FFFCFBFF9E
:102C4000000101FF01FFFEFE000000FDFAFDFF0391
:102C50000301FDFCFBFCFF01040503FFFCFBFCFD85
:102C600002030201FAF9F7F9FF05050300FBFAF97F
:102C7000FB000606070300FEFBFAFBFCFE02010256
:102C800001FFFEFCFAFCFEFF01FF010100FF010154
:102C9000FFFEFDFDFE020301FEFCFCFDFC00030245
:102CA00000FBF9FBFF0105040301FCFBFBFD000336
:102CB000010200FFFDFCFDFDFEFF000100FFFEFE26
:102CC000FEFE0101010101010101010101010101FA
:102CD000030303010101010101010101FFFEFCFCED
:102CE000FAFCFFFE01FE0101010101030305070DCE
:102CF0000911050501F4FAE1EADBDDE3D9E5D3D3F7
:102D0000D0D0EE092648586D72726F563F11E7C653
:102D1000B1ADADB1B7BEC2C8D0DFF00511243339B3
:102D20003B3535312D241605F2E5DDDDE1E5E7E53E
:102D3000E5E5E7E7EAECEEEEF0F4FA030D1A242DF0
:102D40002D2820160D070501FAF4EEECEEF4FA0139
:102D50000101FCFCFCFE010101FE010105070B0B5A
:102D60000B0B0B0B0B0B09090503FEFAF8F6F4F439
:102D7000F2F2F0F0F2F2F4F6F8FAFCFE01050709BF
:102D800009090705050505050503FEFCFAF8F8F62F
:102D9000F6F6F6F6F6F6F8FAFAFCFE01010305057A
:102DA000070709090B0B0B0B0B0B0B0703FEFCF8BA
:102DB000F6F4F2F2F2F4F6FAFC01070B0D0F0F0F26
:102DC0000D0B090503FFFCF8F6F2F2F0F0F0F0F05D
:102DD000F2F4F6F8FAFCFEFE010507090B0B0B0BEB
:102DE00009090705030301FEFAF8F8F8F8FAFAFCF6
:102DF000FE01030509090B0B0B0B09090907050364
:102E000001FEFCFAF8F8F8F8FAFAFAFAFAFAFCFC19
:102E1000FCFCFFFEFEFEFEFFFEFFFEFFFEFFFEFFD0
:102E2000FE01010101FEFEFEFEFCFFFEFFFEFF01B2
:102E30000101010101030303030305050503050562
:102E4000030301FEFFFCFCFAFAFCFCFCFCFCFCFCAE
:102E5000FEFFFE01010101010101FEFEFEFEFFFE7B
:102E6000FEFEFEFFFEFEFEFEFEFE0101010101016F
:102E700001010101010101010101FEFE01FEFEFE51
:102E8000FEFEFEFFFEFFFEFEFEFEFFFEFFFEFE015B
:102E9000FE0101010101010101010101010101FE28
:102EA000FEFEFEFEFE01010101010101030101011F
:102EB000FEFFFEFCFCFCFCFCFEFEFEFEFFFE000036
:102EC0000101FEFEFEFCFCFCFCFCFCFCFCFE01FE29
:102ED000FCFEFEFCFCFEFAF7F3EEE7EEF7F7010F5F
:102EE00018222937322D372B241D1D0FF5F3E9D970
:102EF000CDC1B39E999797ACC6D9EE13324A617291
:102F00006F665C4C39291B05EED6C1B3AAA7AEBAD1
:102F1000CDDDEEFE0A18242D373E3B342D241D1B3B
:102F2000160F0AFEF5ECE9E7E9ECECE9E7E4E4E783
:102F3000EEF5FC010101FE0303080F11110F0A0356
:102F400001010305050301FCFAF5F5F5F3F0F0EED8
:102F5000ECEEF0F3F7FCFE0305080C0C0F11110F5B
:102F60000F0C0A0808050301FEFCFAF7F5F3F3F36A
:102F7000F5F7FAFCFEFEFE0103080C111416140FFF
:102F80000A03FCF7F3F0F3F5F7FC01010101FEFA87
:102F9000FAF7F5F5F5F5F5FAFC0103080A0C0C0C47
:102FA0000A0803FEFCFCFAFAFAFAF7F5F5F3F3F572
:102FB000FAFE03080C0F111114161613110C080554
:102FC000FEFCFCFCFCFCFCF7F5F5F5F3F5F5F7FA77
:102FD000FCFEFE0305080505050301FEFEFCFCFCE6
:102FE000FAFAF7F5F3F0EEEEEEF0F5FAFE050A0C5C
:102FF0000F0F0F0C0A0805030101FEFE0101030378
:1030000005050301FEFEFCFCFCFE010303030503B2
:10301000030301FEFEFEFCFCFCFCFEFE01010101BF
:1030200001FEFCFAFAFAFAFAFAFCFEFE01010101CD
:103030000101010101010303030301010101010178
:10304000FEFEFEFEFEFEFEFE010101010103010186
:103050000101010101FE010101FEFEFEFEFCFCFE7C
:10306000FEFEFE01FEFEFEFEFEFEFEFE01FE010174
:10307000FEFEFE010101010101FEFCFCFEFEFEFE62
:103080000101010101FEFEFEFEFE0101010101013F
:1030900001010101010101FEFEFEFE01010101012C
:1030A0000101010101FE01010101010101FEFEFE1C
:1030B000FEFEFEFEFEFE0101010101FEFEFEFEFC23
:1030C000FCFEFEFE010101010101FEFEFEFEFEFE10
:1030D000FEFEFEFEFEFEFEFEFEFE010101010101FE
:1030E000010101010101FEFEFEFEFE0101FEFEFEE8
:1030F000FEFEFEFEFEFEFEFEFEFEFEFE01FEFE01EA
:103100000101FEFEFEFEFEFCFEFCFEFEFEFE0101D7
:1031100001030303030101FEFEFEFEFEFE010303A5
:1031200005050301FEFCFAFAFAFCFEFEFEFEFEFEB9
:103130000101010101010301010101010103030377
:103140000101FEFEFCFCFAFAFCFCFEFE010101039B
:1031500003030303010101010101FEFEFEFE010163
:103160000101FEFEFCFAFAFCFCFEFE010101010178
:103170000101010101010101FEFE01010101010145
:10318000FEFEFEFCFCFCFCFEFE0101010101010152
:103190000101FEFEFEFEFEFEFEFE0101010101FE3A
:1031A000FEFEFEFEFEFEFEFE010101010101010127
:1031B0000101010101010101010101FEFE0101FE08
:1031C000FEFEFEFEFEFEFEFE010101010103010105
:1031D000010101FEFEFE0000000946000A50000247
:1031E000000007300000040106000000F808050098
:1031F00000FF0002000008520000C000041E000092
:103200008000FF0002000008560000C00004190200
:10321000050000FF000000D83100000000000000A1
:10322000D83100000000000000D83100000000028A
:103230009D2600003600370002D5260000E905EA89
:103240000502C02C0000FE01FF0102C02E00001686
:10325000031703000000F23100000000020100002B
:10326000000000000000000000000000000000005E
:103270000000010000010203000000000000000047
:103280000000000000000000000000000000030239
:10329000010000000000000000000000000000002D
:1032A0000000030200000001000000020000000016
:1032B0000000000000000000000000030000000209
:1032C00003020300000301020000000000000000F0
:1032D00000000000000000000000010300020001E7
:1032E00000000001010000000000000000000000DC
:1032F00000020100010100000000000000000000C9
:1033000000020000000003000000000200010000B5
:10331000020101000003010000000300000000039F
:103320000000000000000103030000000000000096
:103330000000000000000000020300000000000088
:103340000000000000000000000003030000010175
:10335000010000000302030100000002020100015D
:10336000000000000000000000000000000000005D
:103370000100000000020102000000000100000046
:103380000000000001000000010101000000010137
:103390000000000000000000000000000202000029
:1033A000030000000000000000000000000000001A
:1033B00000000101000000030201010300000300FE
:1033C00000000002000000000100000000000000FA
:1033D00000000001000001000200010000030000E5
:1033E00000000000000000000000000000000000DD
:1033F00000000000000000010000000000000000CC
:1034000001020300000301000000030000010001AD
:1034100001000100020000000000000000000000A8
:10342000010202000003030300000000000001008D
:103430000000000000000001030000000200010085
:103440000003000000000000010000000001000077
:103450000100010001000000000000010000000068
:10346000000100020000010003000001020300014E
:10347000000002000000000000000000000000004A
:103480000003000001000002000000000100000035
:103490000000000000000103000001010000000026
:1034A000000001020200000001010000000303000F
:1034B000000000000100000000000000000100000A
:1034C00000010200000103020000000303010001EB
:1034D00000000000000000000000000000000303E6
:1034E00003000001020301010000000000010000D0
:1034F00003000000000101000000030200000000C2
:1035000001030003000103000200000001030001A9
:10351000010100000000000001030203010001019D
:103520000000000000000000000000000003010097
:103530000000010100000000000000000100000088
:10354000010301000003020300010001010000006B
:103550000000000000000000000002010300000164
:10356000030200010100000102020000000300004C
:10357000000000000000000000010000000000004A
:103580000000000000000000000100000001020334
:103590000100010102000100010000000000000024
:1035A000010000000002030100000203010000020C
:1035B00001030002030100000100000000030000FD
:1035C00000000000000000000100030200010002F2
:1035D00003000000010300000000000000000100E3
:1035E00000000103020001000302000100000000CE
:1035F00000010000000000000001030100000200C3
:1036000000000002000000010000000001000001B5
:10361000000001000102020000000301000000019F
:103620000000000100000000000000010000000296
:10363000020001000303000001000000010000007F
:10364000010000003078ECE4FEC2C2003E62327E2F
:10365000E2F27E007CC60202C6FE7C003C62C2C270
:10366000E2FE7E007CC6027E02FEFC007CC6027E7C
:10367000060606007CC60202F2E6BC0042C2C2FE9A
:10368000C2C6C600103030303838380060C0C0C004
:10369000E2FE7C006436163E76E6E6000406020290
:1036A00082FE7C0062F6DECAC2C6460046CEDAF270
:1036B000E2C6460070CCC2C2E2FE7C007CC6E27E5E
:1036C000060604007CE2C2C27AE6DC007CC6C27E4A
:1036D0001AF2E2003C62027CC0E67C007CFE121022
:1036E0001818180040C2C2C2E67E3C0040C2C2C4E4
:1036F0006438180040C2D2DADAFE6C0080C66E3838
:1037000038ECC6008086CC78301C0C007CC0601081
:103710000CFE7C00000000000018180C00000000E7
:10372000001818003C42998599423C007CC2C2C2F4
:10373000E2FE7C007CE6C46018FC7E003C62027EF7
:10374000C2FE7C0054494C546150555A5A4C4500B5
:10375000555A45424F586147414D45615D5F5E5F37
:1037600060614D4154546150414E44494E410049BD
:103770004E56454E54454461425961564553416148
:1037800054494D4F4E454E5B0054494D4F614A4F91
:103790004B4954414C4F0053544152546147414DA1
:1037A0004500484F5761544F61504C4159004641C4
:1037B000494C0050415353000A2020202020202053
:1037C000202020204F424A4543544956450A0A20AA
:1037D00047455420414C4C20475245454E20534CC0
:1037E000494445525320544F2046414C4C0A2054E2
:1037F00048524F5547482054484520455849542081
:10380000484F4C4520494E205448450A2043454ED8
:103810005445522C20574954484F5554204C455438
:1038200054494E4720414E590A20424C5545205399
:103830004C49444552532046414C4C205448524F29
:103840005547482E0A0A0A20494620594F55204715
:10385000455420545241505045442C205553452046
:103860005448450A205354415254204D454E55204A
:10387000544F20524553455420544F4B454E532EE0
:103880000006211B2A272F051623241117140B3F8E
:103890000A080E0C3C3D09262B0F0001321325347B
:1038A000333618101E3B353A22022804191F3907F7
:1038B000291C0312151D38301A0D2C20312D2E3ED7
:1038C000371A232C153C16341235363A241437197E
:1038D0000A2A01021C251F00083329051E3B0E275A
:1038E000262F18111B3820170D2831320F3D2B13AE
:1038F0000322043021073F1D0B3E2D3909062E10EF
:103900000C283927160E2B2A033C34182E35060DA9
:1039100036333710213F151F1C121920090B24269E
:103920000F073D31112D140032220A2F29171305DC
:103930003B2C02233E1A1D3A251E1B0430010C08A5
:10394000381804253B143D2A11060C0920050F21C7
:1039500015393C1F1D02103E072D01032B1B3F355F
:103960000B24292728133A08381930371C00320E47
:103970002C1A1226343631332E0D1623171E2F2201
:103980000A0000183C3C1800003E63613F0D79714D
:10399000003E63013F017F7E003E7F09080C0C0C56
:1039A0000020616161733F1E0023676D797163239D
:1039B000001E31013E60733E0038666161717F3EDA
:1039C00000321B0B1F3B7373003E63713F03030206
:1039D000003E603008067F3E0002030101417F3E49
:1039E00000FFFF030303030303FFFF0000000000C9
:1039F00000FF7F60606060606003030303030303F4
:103A00000360606060606060600303030303FFFFA6
:103A1000010000000000FFFF0060606060607F7FC9
:103A2000007CC2C2C2E2FE7C001038383838381040
:103A3000007CE6C46018FC7E007C6030FCC0FE7C2C
:103A40000060706864FEFC60007E067CC0C0FE7C86
:103A5000003C62027EC2FE7C007CC2C070181C1C4E
:103A6000007C663C7CC6FE7C007CE2C2FCC0C27C62
:103A700000010203040105010206020320030708F6
:103A800002050609040A0A0B020011241FBECFEF2B
:103A9000D0E1DEBFCDBF11E0A0E0B1E0E0E3F5E7AB
:103AA00002C005900D92A230B107D9F72EE0A2E036
:103AB000B1E001C01D92A73DB207E1F714BE0FB6F9
:103AC000F894A895809160008861809360001092BE
:103AD00060000FBEF89480E990E042EC50E0FC01F9
:103AE00025913491F901FF27308302964817590731
:103AF000B1F70E94C322811102C00E94A12281E07D
:103B00008093D60D8093D70D8093D50D1092C20D62
:103B10001092C80D1092CE0D1092D40D1092DA0DA5
:103B20001092920D1092940D92E19093930D90EE5D
:103B300090939A0D94E19093990D10929E0D10928E
:103B40009D0D1092A20D1092A10D8093C10D0E94A7
:103B5000DF2D78940E94DE2D0E9467340C94963AF3
:103B60000C94000003E80A95F1F700C00091810D64
:103B7000E0E2FDE023E0029FE00DF11D2091800DC9
:103B80003CE3321B300F201751F000000000A191E0
:103B9000B1911C9111930C9303950217C0F313E09C
:103BA0001A95F1F700C03A95D1F7C0E2D1E0662747
:103BB00017E01A95F1F700C040918F0D5091900DCC
:103BC00060908B0D70908C0DD3015E01762F00C03C
:103BD00030918E0D303009F0C0EA09F0D4E009F0E0
:103BE000DA0115E01A95F1F780909A0D07E000933D
:103BF000360001E00093810001E000936F0008E0CF
:103C0000609F8D0100501840000D111D180100E249
:103C100015E0000D111D280100E4E02E03E51AEF68
:103C2000CF93DF93599100C000C01CD32CE02A959C
:103C3000F1F725E02A95F1F7000010938500009335
:103C40008400789400275E9D5032F10108F4F2015F
:103C5000001FE00DF11D1AE01A95F1F70000112781
:103C600000FF02C0000061C046C018B90F900F905D
:103C7000DF91CF9109E00A95F1F763958A94B1F04D
:103C8000683029F007E00A95F1F700C0B8CF662741
:103C9000A0960491049100C03A9509F4672F09F4A5
:103CA000E50100C000C009F4D301A9CF20E12A95A5
:103CB000F1F700E0009385000CE200938400D2D27B
:103CC00011240E94D71FE091940D42E0E160E427A7
:103CD000E093940D07E00093360009E00093810023
:103CE00002E000936F000895059108B9020C059158
:103CF00008B9131CF001059108B90000059108B935
:103D00004991059108B90000059108B94E9D0591AA
:103D100008B94032059108B938F70000059108B993
:103D2000040C059108B9151CF0010000019108B9B7
:103D30004991019108B900004E9D019108B900C058
:103D4000019108B90491019108B940320000019134
:103D500008B948F40000040C019108B9151C019140
:103D6000F00108B9E2CF020C019108B9131C0191CE
:103D7000F00108B9C0CF20E4E0918B0DF0918C0DDB
:103D8000829FE00DF11DA0E2B5E0629FA00DB11D84
:103D900015901D9215901D9215901D9215901D92D3
:103DA00015901D9215901D9215901D9215901D92C3
:103DB00015901D9215901D9215901D9215901D92B3
:103DC00015901D9215901D9215901D9215901D92A3
:103DD00015901D9215901D9215901D9215901D9293
:103DE00015901D9215901D9215901D9215901D9283
:103DF00015901D9215901D9215901D9215901D9273
:103E000015901D9215901D9215901D9215901D9262
:103E100015901D9215901D9215901D9215901D9252
:103E200015901D9215901D9215901D9215901D9242
:103E300015901D9215901D9215901D9215901D9232
:103E400015901D9215901D9215901D9215901D9222
:103E500015901D9215901D9215901D9215901D9212
:103E600015901D9215901D9215901D9215901D9202
:103E700015901D9215901D9215901D9215901D92F2
:103E800015901D9215901D9215901D9215901D92E2
:103E90001124089520E4E0E2F5E0829FE00DF11D99
:103EA000A0E2B5E0629FA00DB11D11901D9211908E
:103EB0001D9211901D9211901D9211901D921190C2
:103EC0001D9211901D9211901D9211901D921190B2
:103ED0001D9211901D9211901D9211901D921190A2
:103EE0001D9211901D9211901D9211901D92119092
:103EF0001D9211901D9211901D9211901D92119082
:103F00001D9211901D9211901D9211901D92119071
:103F10001D9211901D9211901D9211901D92119061
:103F20001D9211901D9211901D9211901D92119051
:103F30001D9211901D9211901D9211901D92119041
:103F40001D9211901D9211901D9211901D92119031
:103F50001D9211901D9211901D9211901D92119021
:103F60001D9211901D9211901D9211901D92119011
:103F70001D9211901D9211901D9211901D92119001
:103F80001D9211901D9211901D9211901D921190F1
:103F90001D9211901D9211901D9211901D921190E1
:103FA0001D9211901D9211901D9211240895E0917F
:103FB000810D8E2FEE0FE80FFF27E05EF24F00908D
:103FC000800D801930F4A191B19101900C928395EC
:103FD000D1F7089598E0799FA12DBB27AD57B24F37
:103FE000ED91FD9190E4699FE00DF11D899FD00155
:103FF000A05EBA4F90E040FD09C0822F48E0421B0E
:1040000070FF0AC01796E80FF91F08C088E0821BEE
:10401000422F70FFF8CF1197A20FB91F68E028E078
:10402000231B50FD09C0639FA00DB11D71FDE85C0D
:1040300071FDFF4F122E08C0132E1A9471FF122E1D
:10404000619DE00DF11D132E71FD409770FD05C0BF
:1040500057EF540F70E061E004C059EF541B7FEF3D
:104060006FEF36EF042E469530F461F0259123135F
:104070002C93A60FB71F259123132C93A60FB71FC0
:104080004150A1F7259123132C931A9449F0E80F7E
:10409000F91FA51BBF4F402D469568F739F7F2CFA2
:1040A00008950F921F92EF93FF93FFB7E091840062
:1040B000FF93E2FD04C0E1FD02C0000000C0E0FF8C
:1040C00000C0E091930DEA95E093930DF091920D6D
:1040D000F0FD51C0EC3098F0F3E0F0938900FDE87A
:1040E000F0938800E0FB289826F4E1E00E94432149
:1040F000B2C0E5E1EA95F1F70000289AACC0E630DD
:1041000008F100C000C02898E0FBE4E016F40E942B
:104110004321E4E0E0933600E6E0E0936F009BC0CB
:10412000EF93E0918400E2FD04C0E1FD02C00000D5
:1041300000C0E0FF00C0E2E00000289AE0936F00BA
:10414000EF91189500C0E0FB289826F4E1E00E946A
:10415000432105C0E5E1EA95F1F70000289AE091D6
:10416000930DE03009F077C0EDEFE093930DE1E0BF
:10417000E093920D70C0E7E0E0938900EBE1E093FB
:10418000880000C02898E2E000C00E944321FDEFB3
:104190000090990DF019E091930DEF17D8F4FDEF11
:1041A0000090990DF01900909A0DF019EF1790F00A
:1041B000EDE1FF2700800F92EA95E1F70DE00A9507
:1041C000F1F700C00E94B21DE1E0FF270F900192BD
:1041D000EE31E0F3E091930DE03009F03CC02F9315
:1041E0003F934F935F936F937F938F939F93AF937F
:1041F000BF9378941124EE27E093920DE2E1E093CF
:10420000930D8091A30D9091A40D01968093A30D21
:104210009093A40DE091950DF091960DE115F105A7
:1042200009F009950E9491220E94EE2D0E943D21E5
:104230001124E091970DF091980DE115F10509F029
:104240000995BF91AF919F918F917F916F915F91F0
:104250004F913F912F91EF91EFBFFF91EF911F9001
:104260000F9018952898E2E000C00E944321E09149
:10427000930DEA95E093930D0895E091C10DE0FD53
:104280000E949E2308952F931F930F932E2F10911A
:10429000C50DE091C60DF091C70D0091C30D100F33
:1042A0000091C40DE01F0491E093C60D1093C50D5D
:1042B0001091C20D010300081091CB0DE091CC0DBF
:1042C000F091CD0D0091C90D100F0091CA0DE01FA6
:1042D0000491E093CC0D1093CB0DF0011091C80D1B
:1042E000010300081F0E1091D10D20FD289A0E1E0B
:1042F000E091D20DF091D30D0091CF0D100F0091F0
:10430000D00DE01F0491E093D20D1093D10DF00178
:104310001091CE0D010300081F0E0E1E0091D60D48
:104320001091D70DF091D40DF695889400FDF1957C
:10433000EE0B1F0E0E1EE091D80DE25020F0E4911E
:10434000E491E4910AC0E02F16950795E027E0FB81
:1043500016F9E091D50DE0FF06F90093D60D109304
:10436000D70DE093D80D10E0E091DD0DF091DB0D5D
:1043700021FD289AEF0FE093DD0DE091DE0DF09125
:10438000DF0D0091DC0DE01FF11F0091E20D109197
:10439000E30DE017F10718F4049100C006C0009186
:1043A000E00D1091E10DE01BF10BE093DE0DF093B9
:1043B000DF0D0491F0011091DA0D010300081F0ECA
:1043C0000E1EF0010F911F91F058EF4F1AF4F0E01C
:1043D000000003C0E03009F0FFEFF093B3002F912D
:1043E00008958370880FE3E8FDE0E80FF11D608316
:1043F00071830895E0E8F3E0A0E2B1E060E26D933C
:104400003197E9F7112408959927772720E2629FD1
:10441000080E191EA0E2B1E0A00DB11D405E4C9344
:104420001124089580938B0D90938C0D08959927F6
:10443000772720E2629F080E191EA0E2B1E0A00DCE
:10444000B11D8C9180529927112408958091940D6B
:10445000817008952091940D2E7F2093940D0895DE
:10446000882329F480919B0D90919C0D0895809153
:104470009F0D9091A00D0895E0E6F0E0808183FD0E
:10448000089588E198E0F894808390837894FFCF32
:10449000F999FECF92BD81BD60BDF894FA9AF99A60
:1044A00078940895F999FECF92BD81BDF894F89A59
:1044B00080B578940895129AC895C895C895C895FE
:1044C000129840E180E090E020E030E036952795BA
:1044D00096958795C895C895C895C8951398009BDB
:1044E0003068019B9068139AC895C895C895C8957F
:1044F000415061F730939C0D20939B0D9093A00D3C
:1045000080939F0D80919B0D90919C0D0F9731F0A2
:1045100080919F0D9091A00D0F9711F40C943C2267
:1045200008951092FD0D009903C081E08093FD0D68
:10453000019905C08091FD0D82608093FD0D0C9462
:104540005B22CF93DF93C0E0D0E0FE01E059FF4F44
:104550006491CE010E9448222196C032D105A9F76C
:10456000C0E2D0E06FEFCE010E9448226FEFCE0193
:1045700001960E944822A096C11588E0D80791F7BD
:10458000DF91CF910895CF9380E090E00E94522276
:10459000C82F81E090E00E945222282F30E0322F75
:1045A00022272C0F311D81E02A35354509F080E0A6
:1045B000CF910895FC0167870895E2ECFDE081E06A
:1045C00091E0958B848B638B0895FC0182810C9420
:1045D0007426FC019181690F618382810C945D26B0
:1045E000FC019181961B692F918382810C945D2639
:1045F000FC0190819F7590830895FC0190819064E7
:1046000090830895FC01668708951F93CF93DF93ED
:10461000EC01162F8A810E945D2619838881877F8D
:104620008883DF91CF911F910895FC0162870895DF
:10463000FC0163870895CF93DF93EC01262F8981D6
:1046400090E0FC01EE0FFF1FEE5DF24B459154919F
:10465000FC01E60FF11D67FDFA95EE0FFF1FEE5D01
:10466000F24B85919491841B950B688570E00E94B4
:104670007B3A6115710511F461E070E0EA8186E032
:10468000E89FF0011124EE53F24F81819281860F51
:10469000971F928381837E836D838881886088835E
:1046A0008981280F2F83DF91CF910895FC016087C6
:1046B0000895FC0164830895CF93DF93EC018C810E
:1046C0008823F1F02D893E89662379F0062E000CAF
:1046D000770B6F5F7F4FAB01440F551F640F751F42
:1046E000261B370B09C0EF3F39F023503109F90180
:1046F0003297E491ED30B9F73E8B2D8B81508C834E
:10470000DF91CF9108959093760E8093750E8FE68A
:104710008093780E1092C00DE0E0FEE080E090E122
:104720003FEF28E18283908315863487108A2387A0
:1047300090878F5F77968530A9F70895EF92FF9263
:104740000F931F93CF93DF93C0E0DEE002EC1DE0F8
:104750009801DE01FD018785882391F04685082EAA
:10476000000C990B840F911D8F3F910519F014F0E7
:104770008FEF90E097FF02C080E090E0FD01868718
:104780006C9163FF25C0FD0145815681F90181814E
:104790009281840F951F92838183FD017781E72F9A
:1047A000F0E0EE0FFF1FEE5DF24BE590F490141673
:1047B000150624F48E159F0530F40AC0452B41F0F0
:1047C000E816F90628F0F901F282E182677F6C931E
:1047D00057962A5F3F4FFEE0A337BF0709F0BACFD5
:1047E0008091C00D882309F4D0C087E1F82E809114
:1047F000730E9091740E2091790E30917A0E82177B
:10480000930709F0BDC020917C0E30917D0EB90157
:104810006F5F7F4F70937D0E60937C0EF901449122
:104820004F3F79F5A9014E5F5F4F50937D0E409346
:104830007C0EFB0164916F3219F41092C00DA0C080
:10484000663009F090C0FA014491C9010496909332
:104850007D0E80937C0EF9013396E491E33529F4C3
:1048600090937F0E80937E0E7EC0E53409F07BC06E
:1048700080917E0E90917F0E90937D0E80937C0EA2
:1048800072C047FD4093770E9091770E892F8F70FD
:1048900047FF08C02E5F3F4F30937D0E20937C0E64
:1048A000FB014491907F903BE1F0903C09F455C0AE
:1048B000903909F058C0E0917C0EF0917D0E9F0177
:1048C0002F5F3F4F30937D0E20937C0E2491220F5B
:1048D000F89EF0011124E050F24F60890E941D26DD
:1048E00042C0E0917C0EF0917D0E9F012F5F3F4F03
:1048F00030937D0E20937C0EE491473051F4F89E66
:10490000C00111248050924F2E2F220FFC012487CA
:104910002AC04B3051F4F89EC00111248050924FB0
:104920002E2F220FFC0123831EC04C3551F4F89E1C
:10493000C00111248050924F2E2F220FFC0122879C
:1049400012C0443681F4F89EC00111248050924F69
:104950002E2F220FFC01238706C0F89EF0011124A0
:10496000E050F24F408B8CE79EE00E9476259093BA
:104970007A0E8093790E1092740E1092730E37CFC8
:1049800001969093740E8093730EEE24EA94F12CAA
:10499000888185FF37C02D893E89232B09F432C0D9
:1049A00086FD30C09B898A8998132AC0ED89FE89CB
:1049B000BF016F5F7F4F7E8B6D8B84918F3F31F492
:1049C00088818F7788831E8A1D8A1AC03296FE8B53
:1049D000ED8BFB016491E82FF0E0EE0FFF1FEE532B
:1049E000FF4F25913491CE01F9010995ED89FE899A
:1049F000CF0101969E8B8D8BE491EA8B1B8AD2CFDF
:104A00009F5F9B8B988195FF5EC08C898F3F11F0D3
:104A10008F5F8C8B97FD02C09C8501C09FEF8D85B9
:104A20004985882309F449C06E85662309F445C089
:104A3000992309F442C05091780E552309F43DC0E2
:104A4000899FC00111249395892F9927689F900110
:104A5000699F300D11243395232F33276B81629F7B
:104A6000C001639F900D11249395892F9927589F1A
:104A70009001599F300D11243395232F33278A85B8
:104A80008823E9F0E42FF0E0E050F14BE491E058A6
:104A90008E9FF0011124F395EF2FFF27B7016E1BB6
:104AA0007F0B629FC001639F900D729F900D112438
:104AB0009C013395232F332702C020E030E08B8503
:104AC000480F498702C020E030E0F8012083679654
:104AD0000A5F1F4FFEE0C337DF0709F059CFDF91B0
:104AE000CF911F910F91FF90EF900895DC01ED9110
:104AF000FC9111979F012F5F3F4F11963C932E938E
:104B0000E491E7FD03C08E2F90E00895EF778E2F9C
:104B100090E09695982F8827979587952F5F3F4F20
:104B2000F9013197E4914E2F4F77840F911DE7FDE6
:104B3000F0CF2D933C930895FF920F931F93CF9343
:104B4000DF93EC01162F022F8881282F2078F22E78
:104B50001F869FEF9E874D871C8A877B88830983EA
:104B60001A8619861C829B838A81833069F42111FD
:104B700001C0102F81E091E09093D70D8093D60D66
:104B800081E08093D50D36C0843069F51092DD0D3B
:104B90008091750E9091760EE9E06E9F800D911DCB
:104BA0001124FC013196459154915093DF0D4093AF
:104BB000DE0D9C01295F3F4FF901659174910596C7
:104BC000FC0185919491681B790B7093E10D6093C2
:104BD000E00DF90185919491480F591F5093E30D11
:104BE0004093E20D03C060E00E947426602F8A812A
:104BF0000E945D26FF2011F0198B01C0188BE091F7
:104C0000750EF091760E29E0129FE00DF11D112432
:104C1000339685919491009719F41E8A1D8A07C0D6
:104C20001B8AFC0124912A8B01969E8B8D8BDF9130
:104C3000CF911F910F91FF900895CF93DF93A82FED
:104C4000B0E097E1899FF0011124E050F24F80819C
:104C500085FF02C087FD2EC0211118C097E19A9FE1
:104C6000F0019B9FF00D1124E050F24F97859111B8
:104C700002C086FF158697E19A9FF0019B9FF00D79
:104C80001124E050F24F8F7B808314C0822F242F99
:104C900097E19A9FE0019B9FD00D1124C050D24F05
:104CA00018821E8A1D8A482FCE010E949C25888169
:104CB00080628883DF91CF91089599277727833089
:104CC00009F40895E2E2FDE4660F771FE60FF71F8F
:104CD000A591B491E2ECFDE026E0289FE00DF11DE6
:104CE000A183B2831124089599277727E2ECFDE090
:104CF00026E0289FE00DF11D6E3F31F46091D50D47
:104D00006E7F6093D50D0BC06F3F31F46091D50D70
:104D10006E6F6093D50D03C07FE4760F7583112409
:104D2000089522002400260028002B002D003000CA
:104D30003300360039003D004000440048004C007C
:104D4000510056005B00600066006C007300790043
:104D50008100880090009900A200AC00B600C1005C
:104D6000CC00D800E500F30001011001210132015F
:104D7000440157016C0181019801B001CA01E501AC
:104D800002022102410264028802AE02D70203033A
:104D9000300361039403CB03050442048304C70476
:104DA00010055D05AF0505066106C20629079607D1
:104DB0000908830805098E09200ABA0A5D0B0A0C46
:104DC000C10C840D510E2B0F121007110A121D1366
:104DD00040147415BA1614188319071BA31C571E08
:104DE00024200E22142439267F28E82A752D293004
:104DF00006330F364539AD3C49401B442848734CB7
:104E0000FE50CF55EA5A51600C661D6C8B725A7970
:104E1000928037885090E598FDA19FABD3B5A3C091
:104E20000000000000000000000000000000000082
:104E30000000000000000000000000000000000072
:104E40000000000000000000000000000000000062
:104E50000000000000000000000000000000000052
:104E60000000000000000000000000000000000042
:104E70000000000000000000000000000000000032
:104E80000000000000000000000000000000000022
:104E90000000000000000000000000000000000012
:104EA0000000000000000000000000000000000002
:104EB00000000000000000000000000000000000F2
:104EC00000000000000000000000000000000000E2
:104ED00000000000000000000000000000000000D2
:104EE00000000000000000000000000000000000C2
:104EF00000000000000000000000000000000000B2
:104F0000000306090C101316191C1F2225282B2E2E
:104F1000313336393C3F414447494C4E5153555843
:104F20005A5C5E60626466686A6B6D6F7071737400
:104F3000757678797A7A7B7C7D7D7E7E7E7F7F7FB9
:104F40007F7F7F7F7E7E7E7D7D7C7B7A7A7978769F
:104F500075747371706F6D6B6A68666462605E5CB5
:104F60005A585553514E4C494744413F3C393633CA
:104F7000312E2B2825221F1C191613100C0906038D
:104F800000FDFAF7F4F0EDEAE7E4E1DEDBD8D5D294
:104F9000CFCDCAC7C4C1BFBCB9B7B4B2AFADABA85F
:104FA000A6A4A2A09E9C9A9896959391908F8D8C82
:104FB0008B8A8887868685848383828282818181A9
:104FC0008181818182828283838485868687888AA3
:104FD0008B8C8D8F9091939596989A9C9EA0A2A46D
:104FE000A6A8ABADAFB2B4B7B9BCBFC1C4C7CACD38
:104FF000CFD2D5D8DBDEE1E4E7EAEDF0F4F7FAFD55
:10500000808182838485868788898A8B8C8D8E8F28
:10501000909192939495969798999A9B9C9D9E9F18
:10502000A0A1A2A3A4A5A6A7A8A9AAABACADAEAF08
:10503000B0B1B2B3B4B5B6B7B8B9BABBBCBDBEBFF8
:10504000C0C1C2C3C4C5C6C7C8C9CACBCCCDCECFE8
:10505000D0D1D2D3D4D5D6D7D8D9DADBDCDDDEDFD8
:10506000E0E1E2E3E4E5E6E7E8E9EAEBECEDEEEFC8
:10507000F0F1F2F3F4F5F6F7F8F9FAFBFCFDFEFFB8
:10508000000102030405060708090A0B0C0D0E0FA8
:10509000101112131415161718191A1B1C1D1E1F98
:1050A000202122232425262728292A2B2C2D2E2F88
:1050B000303132333435363738393A3B3C3D3E3F78
:1050C000404142434445464748494A4B4C4D4E4F68
:1050D000505152535455565758595A5B5C5D5E5F58
:1050E000606162636465666768696A6B6C6D6E6F48
:1050F000707172737475767778797A7B7C7D7E7F38
:1051000000020406080A0C0E10121416181A1C1EAF
:1051100020222426282A2C2E30323436383A3C3E9F
:1051200040424446484A4C4E50525456585A5C5E8F
:1051300060626466686A6C6E70727476787A7C7E7F
:105140007F7D7B79777573716F6D6B69676563615F
:105150005F5D5B59575553514F4D4B49474543414F
:105160003F3D3B39373533312F2D2B29272523213F
:105170001F1D1B19171513110F0D0B09070503012F
:10518000FFFDFBF9F7F5F3F1EFEDEBE9E7E5E3E11F
:10519000DFDDDBD9D7D5D3D1CFCDCBC9C7C5C3C10F
:1051A000BFBDBBB9B7B5B3B1AFADABA9A7A5A3A1FF
:1051B0009F9D9B99979593918F8D8B8987858381EF
:1051C00080828486888A8C8E90929496989A9C9EEF
:1051D000A0A2A4A6A8AAACAEB0B2B4B6B8BABCBEDF
:1051E000C0C2C4C6C8CACCCED0D2D4D6D8DADCDECF
:1051F000E0E2E4E6E8EAECEEF0F2F4F6F8FAFCFEBF
:105200007F7F7F7F7F7F7F7F7F7F7F7F7F7F7F7FAE
:105210007F7F7F7F7F7F7F7F7F7F7F7F7F7F7F7F9E
:105220007F7F7F7F7F7F7F7F7F7F7F7F7F7F7F7F8E
:105230007F7F7F7F7F7F7F7F7F7F7F7F7F7F7F7F7E
:105500000309131E28313A40464C5054585B5E61E3
:10551000636567696B6C6E6F7071727374757677A3
:10552000777879797A7A7B7B7C7C7C7D7D7D7E7EC9
:105530007E7E7F7F7F7F7F7F7F7F7F7F7F7F7F7F7D
:105540007F7F7F7F7F7F7F7F7F7F7F7F7F7E7E7E6E
:105550007E7D7D7D7C7C7C7B7B7A7A7979787777A0
:10556000767574737271706F6E6C6B696765636169
:105570005E5B5854504C46403A31281E13090300D4
:10558000C6CCD5DBDFE3E5E7E9EAEBECEDEEEFEFE8
:10559000F0F0F0F1F1F1F1F2F2F2F2F2F2F2F2F3F4
:1055A000F3F3F3F3F3F3F3F3F3F3F3F3F3F3F3F3CB
:1055B000F3F3F3F3F3F3F3F3F3F3F3F3F3F3F3F3BB
:1055C000F3F3F3F3F3F3F3F3F3F3F3F3F3F3F3F3AB
:1055D000F3F3F3F3F3F3F3F3F3F3F3F3F3F3F3F39B
:1055E000F2F2F2F2F2F2F2F2F1F1F1F1F0F0F0EFA8
:1055F000EFEEEDECEBEAE9E7E5E3DFDBD5CCC60067
:1056000000283D42302D2C2B2C2D2E2F30323335BF
:1056100037393B3D3F414345484A4C4E505355571F
:10562000595B5D5F61636567696B6C6E7071737404
:10563000757778797A7B7C7D7D7E7E7F7F7F7F7FAB
:105640007F7F7F7F7F7F7E7E7D7D7C7B7A79787791
:1056500075747371706E6C6B69676563615F5D5BB8
:1056600059575553504E4C4A484543413F3D3B39AD
:1056700037353332302F2E2D2C2B2C2D30423D2818
:1056800000E9E5FED4D7D7D7D6D4D2D0CECCCAC87D
:10569000C6C3C1BFBDBAB8B6B4B1AFADABA9A7A5BB
:1056A000A3A19F9E9C9A999795949391908F8D8C8E
:1056B0008B8A89888887868585848484838383838D
:1056C0008383838383848484858586878888898A85
:1056D0008B8C8D8F909193949597999A9C9E9FA176
:1056E000A3A5A7A9ABADAFB1B4B6B8BABDBFC1C38E
:1056F000C6C8CACCCED0D2D4D6D7D7D7D4FEE5E947
:10570000F9F8F9F5EBE1DDDEE0E2E4E5E6E5E4E217
:10571000DED9D2CAC1B7ACA299918A868381808032
:105720008182838586888A8C8D8F909293959697B7
:1057300098999A9B9B9C9D9D9D9E9E9E9F9F9F9F9F
:105740009F9F9F9E9E9E9D9D9D9C9B9B9A99989797
:1057500096959392908F8D8C8A888685838281809E
:10576000808183868A9199A2ACB7C1CAD2D9DEE280
:10577000E4E5E6E5E4E2E0DEDDE1EBF5F9F8F90089
:105780000708070B151F2322201E1C1B1A1B1C1E9B
:1057900022272E363F49545E676F767A7E7F7F7F61
:1057A0007F7E7D7B7A7876747371706E6D6B6A69BB
:1057B00068676665656464636362626261616161B2
:1057C000616161626262636363646565666768699B
:1057D0006A6B6D6E7071737476787A7B7D7E7F7F75
:1057E0007F7F7E7A766F675E54493F362E27221E72
:1057F0001C1B1A1B1C1E2022231F150B0708070049
:105800001F313D444E5354565A5F64696E74767925
:105810007C7F7F7F7F7F7F7F7F7F7F7F7F7F7F7F9B
:105820007F7F7F7F7F7F7F7F7F7F7F7F7F7F7F7F88
:105830007F7F7F7F7F7F7F7F7F7F7F7F7F7F7F7F78
:105840007F7F7F7F7F7F7F7F7F7F7F7F7F7F7F7F68
:105850007F7F7F7F7F7F7F7F7F7F7F7F7F7F7F7F58
:105860007F7F7F7F7F7F7F7F7F7F7F7F7F7F7F7F48
:105870007F7F7F7F7F7F7F7F7F7F7F7C7871684C9A
:105880002C1C120C0A0B0A05FDF3E9DFD4CAC0B7C1
:10589000AEA69E97918B8685828080808080808056
:1058A00080808080808080808080808080808080F8
:1058B00080808080808080808080808080808080E8
:1058C00080808080808080808080808080808080D8
:1058D00080808080808080808080808080808080C8
:1058E00080808080808080808080808080808080B8
:1058F000808080808087919DACC4CBD4DDF2FAFAA1
:105900008093820D089520E4829FC0011124805E5F
:105910009A4F08952F923F924F925F926F927F928B
:105920008F929F92AF92BF92CF92DF92EF92FF92AF
:105930000F931F93CF93DF9300D000D0CDB7DEB786
:1059400080910001882309F4BCC08091820D80936E
:10595000810D8093800D00EA14E0F801638062FEFF
:105960001EC00C5F1F4FF5E000321F07B1F70F900C
:105970000F900F900F90DF91CF911F910F91FF909B
:10598000EF90DF90CF90BF90AF909F908F907F90DF
:105990006F905F904F903F902F900C94D71FF8011D
:1059A0008081282E269426942694877011F092E008
:1059B00001C091E0F801F1812F2F285F422E46941B
:1059C000469446944A94F770FA83FF2319F022E034
:1059D000298302C031E03983712C762C6624F801CA
:1059E0002281620E711C3A81232F30E0F22FEE27C4
:1059F000E80FF11DFC83EB83C12CD12C920D9A830F
:105A0000FBE1F41540F42FEFC21AD20A4394398116
:105A1000C316B0F3A6CF80E2489E40011124BC2CEF
:105A2000AA24322C90E2391609F443C0C401830D34
:105A3000911DFC01E05EFE4F7F0150808091810D41
:105A4000FFE1F51510F0581648F56091800D6032B1
:105A500010F52FE1251528F480EE850D0E94BB1E60
:105A600005C0581618F4852D0E944A1F8091800D9C
:105A7000E82FF0E09F01220F331FE20FF31FE05EDB
:105A8000F24FF182E0825282F701808391E0980F19
:105A90009093800D582EFFE1F51558F08091810DFF
:105AA000581638F02B813C81A501B301852D0E9449
:105AB000EA1F33942FEFA21AB20A3A813311B2CF00
:105AC000A2CF0F900F900F900F90DF91CF911F9169
:105AD0000F91FF90EF90DF90CF90BF90AF909F908D
:105AE0008F907F906F905F904F903F902F90089590
:105AF000DF92EF92FF920F931F93CF93DF93FB01FF
:105B00001491319654912FEF210FE42FE17040FF53
:105B100003C0922FDFEF02C0D1E090E041FF04C04C
:105B20003FEF350F0FEF02C001E030E0EE2311F040
:105B3000E22E01C0E12CC0E0C517F9F03103D0011D
:105B40001124D82ED10E8D15A1F0FD01E90FF11D04
:105B500097FDFA953296E60FF71FF49024E0829FA6
:105B6000F0011124E056FB4FF2828F5F43839D0FBB
:105B7000EACF300FCF5F9E2DDFCFDF91CF911F9106
:105B80000F91FF90EF90DF9008950F9330E0301762
:105B900099F0582F520F962F851759F074E0879F70
:105BA000F0011124E056FB4F908341838F5F985F93
:105BB000F3CF3F5F485FEBCF0F9108950895E0EA80
:105BC000F4E080EE10828183349695E0E032F907AC
:105BD000C9F71092800D1092820D08950E94822EB6
:105BE0000C948A2C7F928F929F92AF92BF92CF9209
:105BF000DF92EF92FF920F931F93CF93DF93982E34
:105C0000862EFA01E4903196F490AE2CB12CEA0184
:105C1000229610E01F15B9F06E0100E0712E780C8D
:105C20000E1569F0F601449150E0672D802F890D23
:105C30000E9404220F5FFFEFCF1ADF0AF1CF1F5F30
:105C4000CA0DDB1DE7CFDF91CF911F910F91FF9020
:105C5000EF90DF90CF90BF90AF909F908F907F900C
:105C600008956F927F928F929F92AF92BF92CF9240
:105C7000DF92EF92FF920F931F93CF93DF93682EE3
:105C8000762E6A0159014801C0E0D0E0CA15DB0553
:105C90009CF4E12CF12C1C2F170DEC14FD0454F492
:105CA000A401612F862D8E0D0E9404228FEFE81A29
:105CB000F80AF3CF2196EACFDF91CF911F910F9190
:105CC000FF90EF90DF90CF90BF90AF909F908F901C
:105CD0007F906F9008950F931F93CF93DF938C0164
:105CE000C0E0D0E0C017D10744F40E9426228823E8
:105CF000E1F30E942A222196F5CFDF91CF911F91E7
:105D00000F9108958091830E882301F18091840E74
:105D1000811119C08091810E8093840EE091850ECF
:105D2000F0E0E152FF4FE491E7B99091850E809148
:105D3000820E890F8093850E882311F08D3031F407
:105D40001092830E089581508093840E08958230BE
:105D5000C9F0833051F1813009F050C0623019F43C
:105D6000413051F435C0613009F041C0423009F092
:105D700045C08DE39AE00895433009F03FC089E4BF
:105D80009AE00895623019F4413041F424C0613042
:105D9000C1F54230E9F58BE59AE008954330F1F022
